:100000000C9463000C948B000C948B000C944303B1
:100010000C9443030C9443030C948B000C948B00BE
:100020000C948B000C948B000C948B000C948B0024
:100030000C948B000C948B000C948B000C948B0014
:100040000C94A1020C948B000C9411030C94EB0201
:100050000C948B000C948B000C948B000C948B00F4
:100060000C948B000C948B0000000008000201002F
:100070000003040700000000000000000000000072
:10008000250028002B0000000000240027002A0083
:1000900000000000230026002900040404040404D6
:1000A0000404020202020202030303030303010227
:1000B00004081020408001020408102001020408F6
:1000C0001020BD03D00511241FBECFEFD8E0DEBF46
:1000D000CDBF11E0A0E0B1E0E4E3FCE002C0059098
:1000E0000D92A432B107D9F722E0A4E2B1E001C039
:1000F0001D92AD32B207E1F710E0C2E6D0E004C0D5
:100100002197FE010E940206C136D107C9F70E945D
:100110009F040C940D060C94000090E0FC01E8593B
:10012000FF4F3491FC01E255FF4F2491FC01E6564C
:10013000FF4FE491EE2309F43BC0332339F1333010
:1001400091F038F43130A9F0323001F584B58F7D6B
:1001500012C0373091F03830A1F03430B9F48091CA
:1001600080008F7D03C0809180008F778093800016
:100170000DC084B58F7784BD09C08091B0008F77A2
:1001800003C08091B0008F7D8093B000F0E0EE0F4F
:10019000FF1FE458FF4FA591B4918FB7F894EC91ED
:1001A000611103C020952E2301C02E2B2C938FBFED
:1001B0000895CF92DF92EF92FF920F931F93CF9308
:1001C000DF936C017A018B01C0E0D0E0CE15DF0532
:1001D00089F0D8016D918D01D601ED91FC910190CE
:1001E000F081E02DC6010995892B11F47E0102C032
:1001F0002196ECCFC701DF91CF911F910F91FF9016
:10020000EF90DF90CF900895FC01538D448D252F02
:1002100030E0842F90E0821B930B541710F0CF96A0
:10022000089501970895FC01918D828D981761F0D2
:10023000828DDF01A80FB11D5D968C91928D9F5F1D
:100240009F73928F90E008958FEF9FEF0895FC01C8
:10025000918D828D981731F0828DE80FF11D858D7B
:1002600090E008958FEF9FEF0895FC01918D228D0E
:10027000892F90E0805C9F4F821B91098F73992793
:10028000089581E791E00E94350121E0892B09F46E
:1002900020E0822F0895FC01848DDF01A80FB11D9D
:1002A000A35ABF4F2C91848D90E001968F739927AC
:1002B000848FA689B7892C93A089B1898C91806499
:1002C0008C93938D848D981306C00288F389E02D5A
:1002D00080818F7D80830895EF92FF920F931F930B
:1002E000CF93DF93EC0181E0888F9B8D8C8D9813E9
:1002F00005C0E889F989808185FD24C0F62E0B8D23
:1003000010E00F5F1F4F0F731127E02E8C8DE81246
:100310000CC00FB607FCFACFE889F989808185FF08
:10032000F5CFCE010E944B01F1CF8B8DFE01E80F7E
:10033000F11DE35AFF4FF0820B8FEA89FB89808120
:10034000806207C0EE89FF896083E889F98980812E
:100350008064808381E090E0DF91CF911F910F91C5
:10036000FF90EF900895CF93DF93EC01888D882361
:10037000C9F0EA89FB89808185FD05C0A889B98912
:100380008C9186FD0FC00FB607FCF5CF808185FFED
:10039000F2CFA889B9898C9185FFEDCFCE010E945B
:1003A0004B01E7CFDF91CF91089580E090E0892B5A
:1003B00029F00E94410181110C94000008952091C0
:1003C0006601309167012817390771F49091640133
:1003D00080916501981741F0E0916401F0E0EC5DD7
:1003E000FE4F808190E008958FEF9FEF089508956C
:1003F0001F93CF93DF93DC015C962D913C915D9729
:100400002115310539F481E090E013969C938E9389
:1004100012973DC05196ED91FC91529750969C9148
:100420005097892F80951FB75E964C915E9741FB40
:10043000772770F941FD6095F8944081772311F09A
:10044000492B01C048234083E9012197F1F748E097
:10045000508160FF02C0592B01C058235083E9012D
:100460002197F1F76695415099F7772321F0908114
:100470008923808303C08081982B90831FBF5C9663
:100480008D919C915D970197F1F721E030E0C901D2
:10049000DF91CF911F9108952091660130916701FE
:1004A0002817390771F4809165012091640190E06B
:1004B000805C9F4F821B910960E470E00E94DA0526
:1004C000089580E090E008952091660130916701E1
:1004D00028173907B9F49091640180916501981744
:1004E00089F0E0916401F0E0EC5DFE4F80812091A5
:1004F000640130E02F5F3F4F2F7333272093640157
:1005000090E008958FEF9FEF0895E0916601F091DC
:100510006701E817F90769F4A389B4899C91858973
:10052000809589238C93109267011092660181E077
:10053000089580E00895089580E090E008950E9475
:1005400008061F920F920FB60F9211242F933F931C
:100550008F939F93AF93BF9380916D0190916E01A4
:10056000A0916F01B091700130916C0123E0230FD5
:100570002D3720F40196A11DB11D05C026E8230FDB
:100580000296A11DB11D20936C0180936D01909383
:100590006E01A0936F01B0937001809168019091FA
:1005A0006901A0916A01B0916B010196A11DB11D75
:1005B0008093680190936901A0936A01B0936B01E5
:1005C000BF91AF919F918F913F912F910F900FBE4F
:1005D0000F901F9018951F920F920FB60F92112433
:1005E0002F933F934F935F936F937F938F939F933B
:1005F000AF93BF93EF93FF9381E791E00E944B018C
:10060000FF91EF91BF91AF919F918F917F916F91EA
:100610005F914F913F912F910F900FBE0F901F90C0
:1006200018951F920F920FB60F9211242F938F934C
:100630009F93EF93FF93E0918101F091820180817C
:10064000E0918701F091880182FD12C09081809134
:100650008A018F5F8F7320918B01821751F0E09197
:100660008A01F0E0EF58FE4F958F80938A0101C018
:100670008081FF91EF919F918F912F910F900FBEED
:100680000F901F9018951F920F920FB60F92112482
:100690002F933F934F935F936F937F938F939F938A
:1006A000AF93BF93EF93FF93E0916601F0916701E1
:1006B000309709F451C0968DA685B785858591FF41
:1006C00004C09C91892329F447C09C91892309F097
:1006D00043C0A389B4899C918589809589238C9393
:1006E000868997890197F1F7608D718DA685B78509
:1006F000558538E020E0CB010197F1F7822F90E09B
:1007000095958795282F4C91452309F02068315005
:1007100091F7868D81FD20958091650190E001968D
:100720008F73992730916401381749F0A0916501C2
:10073000B0E0AC5DBE4F2C938093650103C0868D05
:100740008160868F828D938D0197F1F7A389B4899B
:100750009C918589892B8C93FF91EF91BF91AF91EB
:100760009F918F917F916F915F914F913F912F91C9
:100770000F900FBE0F901F901895CF93DF9310929C
:1007800074011092730188EE93E0A0E0B0E08093D2
:10079000750190937601A0937701B093780124E0DE
:1007A00031E0309372012093710125EC30E03093F9
:1007B0007E0120937D0124EC30E030938001209372
:1007C0007F0120EC30E0309382012093810121EC05
:1007D00030E0309384012093830122EC30E03093A9
:1007E00086012093850126EC30E030938801209328
:1007F000870110928A0110928B0110928C01109245
:100800008D011092110210921002809312029093A7
:100810001302A0931402B093150286E191E0909325
:100820000F0280930E021092250210922402109261
:10083000270210922602109229021092280210928A
:100840002B0210922A0260912C026E7F6D7F6093C2
:100850002C026695617081E068278BE00E948D0014
:10086000E9EBF0E02491E5EAF0E08491882399F047
:1008700090E0880F991FFC01EA57FF4FA591B491B2
:10088000FC01E458FF4F859194918FB7F894EC9157
:10089000E22BEC938FBFE9EBF0E0E491E0931E02D2
:1008A000E5EAF0E0E491F0E0EE0FFF1FE458FF4FBF
:1008B000859194919093200280931F02E8EBF0E0E1
:1008C0002491E4EAF0E084918823C1F090E0880F5D
:1008D000991FFC01EA57FF4FC591D491FC01E458E0
:1008E000FF4FA591B4919FB7F8948881E22FE095CE
:1008F0008E2388838C91E823EC939FBF80912C02F8
:1009000081FD04C061E08AE00E948D008AE080934E
:100910001A02E8EBF0E0E491E0931B02E4EAF0E075
:10092000E491F0E0EE0FFF1FE057FF4F85919491A7
:1009300090931D0280931C02DF91CF9108957894CB
:1009400084B5826084BD84B5816084BD85B58260D4
:1009500085BD85B5816085BD80916E008160809385
:100960006E001092810080918100826080938100EE
:1009700080918100816080938100809180008160FE
:10098000809380008091B10084608093B100809159
:10099000B00081608093B00080917A008460809381
:1009A0007A0080917A00826080937A0080917A0048
:1009B000816080937A0080917A00806880937A00C9
:1009C0001092C10010922902109228021092270260
:1009D00010922602109225021092240285E690E0E1
:1009E00090932B0280932A0290911A02963108F07C
:1009F00057C021E230E0309325022093240223E601
:100A000030E0309327022093260222E430E0309336
:100A100029022093280220916800983050F031E09C
:100A20009E3008F430E081E001C0880F3A95EAF783
:100A300001C084E0822B80936800983038F09E30AB
:100A400040F0963148F020E030E008C02DE630E07C
:100A500005C02BE630E002C02CE630E030932202E5
:100A600020932102983030F481E001C0880F9A95DC
:100A7000EAF70EC0292F30E09E3018F428503109D3
:100A800002C02E50310981E001C0880F2A95EAF793
:100A90008093230280912A0290912B020197F1F713
:100AA0008091280290912902892B21F18091660181
:100AB0009091670122E08E309207E1F0009711F0EB
:100AC0000E94850280912C028E7F80932C021092CE
:100AD0006501109264018EE092E09093670180932B
:100AE0006601E0912102F09122029081809123021F
:100AF000892B8083E0918101F091820182E08083E3
:100B0000E0917D01F0917E011082E0917F01F091F2
:100B100080018FEC808310928901E0918501F09132
:100B2000860186E08083E0918301F09184018081D9
:100B300080618083E0918301F091840180818860ED
:100B40008083E0918301F0918401808180688083BB
:100B5000E0918301F091840180818F7D80838EE01C
:100B600092E00E944C02892B49F08EE092E00E94B4
:100B70006402682F81E791E00E946C0181E791E0B7
:100B80000E943501892B49F081E791E00E94130111
:100B9000682F8EE092E00E94F8010E94D501DFCF1D
:100BA00086E191E090930F0280930E028EE092E036
:100BB0000C94850297FB072E16F4009407D077FD5E
:100BC00009D00E94EE0507FC05D03EF49095819572
:100BD0009F4F0895709561957F4F0895AA1BBB1B89
:100BE00051E107C0AA1FBB1FA617B70710F0A61B2D
:100BF000B70B881F991F5A95A9F780959095BC014E
:100C0000CD010895EE0FFF1F0590F491E02D09949A
:100C100081E090E0F8940C940D0610E0C2E6D0E07C
:100C200004C0FE010E9402062196C336D107C9F70F
:040C3000F894FFCF66
:100C3400000000006C01D9000401B3013501130167
:100C4400270100000000F801D9009C02F7014C02C2
:040C54006402DF0156
:00000001FF
